:100000000C9461000C9473000C9473000C947300B6
:100010000C9473000C9473000C9473000C941E01E8
:100020000C9473000C9473000C9473000C94730084
:100030000C9473000C9473000C9473000C94730074
:100040000C94D4000C9473000C9473000C94730003
:100050000C9473000C9473000C9473000C94730054
:100060000C9473000C947300000000002300260021
:10007000290000000008000201000003040700003E
:1000800000000000000000000000250028002B00F8
:1000900000000000240027002A00040404040404D3
:1000A0000404020202020202030303030303010227
:1000B00004081020408001020408102001020408F6
:1000C000102011241FBECFEFD8E0DEBFCDBF21E04E
:1000D000A0E0B1E001C01D92A131B207E1F70E949A
:1000E0009B010C94EE010C940000F8941092B00067
:1000F0008091B00082608093B0001092B100809136
:10010000B10083608093B10083E58093B3001092C7
:100110007000809170008260809370007894E2EBB0
:10012000F0E02491EEE9F0E08491882399F090E0EA
:10013000880F991FFC01E057FF4FA591B491FC0176
:10014000EA57FF4F859194918FB7F894EC91E22B89
:10015000EC938FBF0895833081F028F4813099F0BB
:100160008230A1F008958730A9F08830B9F084304A
:10017000D1F4809180008F7D03C0809180008F77C3
:1001800080938000089584B58F7702C084B58F7DF9
:1001900084BD08958091B0008F7703C08091B00036
:1001A0008F7D8093B00008951F920F920FB60F922B
:1001B00011242F933F938F939F93AF93BF9380917D
:1001C0000D0190910E01A0910F01B091100130919D
:1001D0000C0126E0230F2D3720F40296A11DB11D3E
:1001E00005C029E8230F0396A11DB11D20930C0122
:1001F00080930D0190930E01A0930F01B093100115
:100200008091080190910901A0910A01B0910B0120
:100210000196A11DB11D8093080190930901A0933F
:100220000A01B0930B01BF91AF919F918F913F91C4
:100230002F910F900FBE0F901F9018951F920F9245
:100240000FB60F921124CF92DF92EF92FF920F938D
:100250001F932F933F934F935F936F937F938F934E
:100260009F93AF93BF93CF93DF93EF93FF938091CF
:100270000001811105C00E94750081E0809300019A
:1002800026E7E22E20E0F22EF701849102EB10E047
:10029000F801C490CEE9D0E0FE01D490DD2091F0C9
:1002A00081110E94AB00ED2DF0E0EE0FFF1FE85929
:1002B000FF4FA591B4918C918C2191E009F490E0CD
:1002C000D92E01C0D12CF7018491F8010491FE01CF
:1002D000C491CC23B9F081110E94AB00EC2FF0E067
:1002E000EE0FFF1FEA57FF4FA591B4919FB7F89407
:1002F000F1E08C91DF1203C00095082301C0082BA8
:100300000C939FBFFF91EF91DF91CF91BF91AF9180
:100310009F918F917F916F915F914F913F912F911D
:100320001F910F91FF90EF90DF90CF900F900FBE35
:100330000F901F901895789484B5826084BD84B521
:10034000816084BD85B5826085BD85B5816085BDD0
:1003500080916E00816080936E0010928100809188
:100360008100826080938100809181008160809310
:100370008100809180008160809380008091B10035
:1003800084608093B1008091B00081608093B00060
:1003900080917A00846080937A0080917A008260F4
:1003A00080937A0080917A008E7F80937A0080918A
:1003B0007A00806880937A001092C10080910001D9
:1003C000811105C00E94750081E080930001C0E0AA
:1003D000D0E02097F1F30E940000FBCFF894FFCF0C
:00000001FF
