:100000000C945D000C9485000C9485000C94850084
:100010000C9485000C9485000C9485000C941503B9
:100020000C9485000C9485000C9485000C9485003C
:100030000C9485000C9485000C9485000C9485002C
:100040000C94CB020C9485000C9499020C947302CE
:100050000C9485000C9485000C9485000C9485000C
:100060000C9485000C9485000000000024002700FB
:100070002A0000000000250028002B0004040404CE
:100080000404040402020202020203030303030342
:10009000010204081020408001020408102001021F
:1000A00004081020000000080002010000030407FB
:1000B0000000000000000000280411241FBECFEF44
:1000C000D8E0DEBFCDBF11E0A0E0B1E0E4ECF8E0A5
:1000D00002C005900D92A631B107D9F723E0A6E141
:1000E000B1E001C01D92A73CB207E1F710E0CDE5F9
:1000F000D0E004C02197FE010E945504CC35D10701
:10010000C9F70E945C030C9460040C940000E8EAB8
:10011000F0E09491E4E9F0E02491E0E8F0E0E4918B
:10012000EE2309F43CC0992339F1933091F038F46F
:100130009130A9F0923001F594B59F7D12C09730AF
:1001400091F09830A1F09430B9F4909180009F7DA7
:1001500003C0909180009F77909380000DC094B56C
:100160009F7794BD09C09091B0009F7703C0909194
:10017000B0009F7D9093B000F0E0EE0FFF1FEE58AF
:10018000FF4FA591B4919FB7F894811104C08C9151
:100190002095282302C0EC912E2B2C939FBF08950D
:1001A000CF92DF92EF92FF920F931F93CF93DF9343
:1001B0006C017A018B01C0E0D0E0CE15DF0581F043
:1001C000D8016D918D01D601ED91FC910190F081E6
:1001D000E02DC6010995892B11F02196EECF7E0105
:1001E000C701DF91CF911F910F91FF90EF90DF90AA
:1001F000CF900895089580E090E00895FC01538D1C
:10020000448D252F30E0842F90E0821B930B5417F0
:1002100010F0CF96089501970895FC01918D828D7D
:10022000981761F0828DDF01A80FB11D5D968C914A
:10023000928D9F5F9F73928F90E008958FEF9FEF55
:100240000895FC01918D828D981731F0828DE80F11
:10025000F11D858D90E008958FEF9FEF0895FC01CB
:10026000918D228D892F90E0805C9F4F821B910998
:100270008F73992708958AE293E00E942F0121E06D
:10028000892B09F420E0822F0895FC01848DDF0181
:10029000A80FB11DA35ABF4F2C91848D90E00196F9
:1002A0008F739927848FA689B7892C93A089B189E8
:1002B0008C91837080648C93938D848D981306C089
:1002C0000288F389E02D80818F7D80830895EF92ED
:1002D000FF920F931F93CF93DF93EC0181E0888F00
:1002E0009B8D8C8D981305C0E889F989808185FDE7
:1002F00026C0F62E0B8D10E00F5F1F4F0F731127D6
:10030000E02E8C8DE8120CC00FB607FCFACFE889FE
:10031000F989808185FFF5CFCE010E944501F1CF9B
:100320008B8DFE01E80FF11DE35AFF4FF0829FB75E
:10033000F8940B8FEA89FB89808180620AC09FB79D
:10034000F894EE89FF896083E889F9898081837058
:10035000806480839FBF81E090E0DF91CF911F9107
:100360000F91FF90EF900895CF93DF93EC01888D6C
:100370008823C9F0EA89FB89808185FD05C0A889A9
:10038000B9898C9186FD0FC00FB607FCF5CF80812F
:1003900085FFF2CFA889B9898C9185FFEDCFCE0179
:1003A0000E944501E7CFDF91CF91089580E090E072
:1003B000892B29F00E943B0181110C9400000895C3
:1003C0003FB7F8948091260390912703A0912803CA
:1003D000B091290326B5A89B05C02F3F19F00196BF
:1003E000A11DB11D3FBFBA2FA92F982F8827820FBB
:1003F000911DA11DB11DBC01CD0143E0660F771F0A
:10040000881F991F4A95D1F708958091190381118A
:1004100053C080E091E0E6E1F1E0DF019C011D9234
:1004200021503040E1F7E6E1F2E0DF019C011D924E
:1004300021503040E1F710921603109217031092EA
:100440001803F8941092B0008091B00082608093FD
:10045000B0001092B1008091B10083608093B10030
:1004600083E58093B30010927000809170008260E9
:10047000809370007894E4E9F0E02491E0E8F0E003
:100480008491882399F090E0880F991FFC01E85926
:10049000FF4FA591B491FC01EE58FF4F85919491C7
:1004A0008FB7F894EC91E22BEC938FBF80E00E9421
:1004B000870081E08093190386E191E00895009719
:1004C00069F0FC0101900020E9F73197AF01481B6A
:1004D000590BBC018AE293E00C94D00080E090E0DC
:1004E00008950E945B041F920F920FB60F92112481
:1004F0002F933F934F935F936F937F938F939F932C
:10050000AF93BF93EF93FF938AE293E00E9445017C
:10051000FF91EF91BF91AF919F918F917F916F91DB
:100520005F914F913F912F910F900FBE0F901F90B1
:1005300018951F920F920FB60F9211242F938F933D
:100540009F93EF93FF93E0913A03F0913B038081F7
:10055000E0914003F091410382FD12C090818091AF
:1005600043038F5F8F7320914403821751F0E09112
:100570004303F0E0E65DFC4F958F8093430301C099
:100580008081FF91EF919F918F912F910F900FBEDE
:100590000F901F9018951F920F920FB60F92112473
:1005A0002F933F938F939F93AF93BF938091220399
:1005B00090912303A0912403B0912503309121034E
:1005C00026E0230F2D3720F40296A11DB11D05C092
:1005D00029E8230F0396A11DB11D209321038093C9
:1005E000220390932303A0932403B09325038091C7
:1005F000260390912703A0912803B0912903019627
:10060000A11DB11D8093260390932703A093280377
:10061000B0932903BF91AF919F918F913F912F91FB
:100620000F900FBE0F901F9018951F920F920FB64C
:100630000F9211242F933F934F935F936F937F9368
:100640008F939F93AF93BF93CF93DF93EF93FF93DA
:100650000E940502DC01AE5FBD4F2C912223C9F040
:10066000EC01DE5F2881FC01EF5FFD4F3081231735
:1006700061F0820F911DFC01F395908181E0911151
:1006800005C080E02F5F288301C080E01C920E949B
:100690008700FF91EF91DF91CF91BF91AF919F9133
:1006A0008F917F916F915F914F913F912F910F901B
:1006B0000FBE0F901F901895CF93DF93CDB7DEB785
:1006C000A1970FB6F894DEBF0FBECDBF789484B566
:1006D000826084BD84B5816084BD85B5826085BD3E
:1006E00085B5816085BD80916E00816080936E00CC
:1006F00010928100809181008260809381008091BE
:10070000810081608093810080918000816080936E
:1007100080008091B10084608093B1008091B0002E
:1007200081608093B00080917A00846080937A0029
:1007300080917A00826080937A0080917A008E7F27
:1007400080937A0080917A00806880937A0010927A
:10075000C1000E940502E0913A03F0913B0382E060
:100760008083E0913603F09137031082E0913803E3
:10077000F091390387E6808310924203E0913E03B3
:10078000F0913F0386E08083E0913C03F0913D03CC
:10079000808180618083E0913C03F0913D03808102
:1007A00088608083E0913C03F0913D038081806804
:1007B0008083E0913C03F0913D0380818F7D8083B5
:1007C0001FEF01E30E940502DC01AF5FBD4F2C91DA
:1007D000FC01E20FF11D1083F39510832F5F2C9322
:1007E00019A208A3CE0180960E945F0242E050E069
:1007F00062E171E08AE293E00E94D0000E94E00191
:100800004B015C0184EFC82EDD24D394E12CF12C44
:100810000E94E001DC01CB0188199909AA09BB09F2
:10082000883E9340A105B10598F321E0C21AD10892
:10083000E108F10888EE880E83E0981EA11CB11C27
:10084000C114D104E104F10419F70E94D601BACF12
:10085000EAE2F3E01382128288EE93E0A0E0B0E0D7
:1008600084839583A683B78384E091E0918380831A
:1008700085EC90E09587848784EC90E09787868765
:1008800080EC90E0918B808B81EC90E0938B828B5D
:1008900082EC90E0958B848B86EC90E0978B868B36
:1008A000118E128E138E148E0895EE0FFF1F059079
:1008B000F491E02D099481E090E0F8940C946004A8
:0408C000F894FFCFDA
:1008C400000000006701D000FE00B4012F010D01FB
:0608D40021010D0A0000E5
:00000001FF
