:100000000C9461000C943F030C9418030C947E0034
:100010000C947E000C947E000C947E000C9466037D
:100020000C947E000C947E000C947E000C947E0058
:100030000C947E000C947E000C947E000C947E0048
:100040000C94CE020C947E000C947E000C947E00E6
:100050000C947E000C947E000C947E000C947E0028
:100060000C947E000C947E0000000000230026000B
:10007000290000000000240027002A0000000000E2
:10008000250028002B0004040404040404040202D4
:100090000202020203030303030301020408102007
:1000A0004080010204081020010204081020000012
:1000B0000008000201000003040700000000000027
:1000C000000011241FBECFEFD8E0DEBFCDBF11E08E
:1000D000A0E0B1E0EAE7F8E002C005900D92A4309C
:1000E000B107D9F723E0A4E0B1E001C01D92AA3323
:1000F000B207E1F70E94EF030C943B040C9400005C
:10010000833081F028F4813099F08230A1F0089595
:100110008730A9F08830B9F08430D1F48091800024
:100120008F7D03C0809180008F7780938000089539
:1001300084B58F7702C084B58F7D84BD089580918A
:10014000B0008F7703C08091B0008F7D8093B000A6
:1001500008951F93CF93DF93282F30E0F901E255E4
:10016000FF4F8491F901E656FF4FD491F901EA5708
:10017000FF4FC491CC23C1F0162F81110E94800043
:10018000EC2FF0E0EE0FFF1FE458FF4FA591B49164
:100190009FB7F894111104C08C91D095D82302C058
:1001A000EC91DE2BDC939FBFDF91CF911F910895DF
:1001B000CF93DF9390E0FC01E656FF4F2491FC01C2
:1001C000EA57FF4F8491882361F190E0880F991FCF
:1001D000FC01EE58FF4FC591D491FC01E458FF4F4C
:1001E000A591B491611109C09FB7F89488812095B9
:1001F00082238883EC912E230BC0623061F49FB779
:10020000F8948881322F309583238883EC912E2BAC
:100210002C939FBF06C08FB7F894E8812E2B2883BC
:100220008FBFDF91CF9108953FB7F8948091360347
:1002300090913703A0913803B091390326B5A89B5C
:1002400005C02F3F19F00196A11DB11D3FBFBA2F68
:10025000A92F982F8827820F911DA11DB11DBC01C8
:10026000CD0143E0660F771F881F991F4A95D1F78C
:1002700008950895CF92DF92EF92FF920F931F930C
:10028000CF93DF93DC015096ED91FC915197008163
:1002900011812281338144815581668177810115E5
:1002A00011052105310529F4452B462B472BA9F4CF
:1002B0007BC04115510561057105B9F06A017B01EB
:1002C000C2E0CC0CDD1CEE1CFF1CCA95D1F7C01699
:1002D000D106E206F30608F05CC010821182128299
:1002E00013821482158216821782408151816281A5
:1002F0007381452B462B472B09F456C04481558109
:1003000066817781452B462B472B09F44DC0EC01C4
:10031000E7EBF0E08491E3EAF0E00491EFE8F0E04D
:100320001491112379F081110E948000E12FF0E0F7
:10033000EE0FFF1FE859FF4FA591B491EC91E02318
:1003400081E009F480E061E0681B89E00E94A90077
:10035000A889B989AC17BD0769F4188619861A8669
:100360001B861C861D861E861F8688E0FE01389629
:10037000DE010AC0188219821A821B821C821D8229
:100380001E821F8288E0FE0101900D928A95E1F79E
:100390000BC0440F551F661F771F0417150726074C
:1003A000370708F0ABCF99CFDF91CF911F910F9115
:1003B000FF90EF90DF90CF90089580911E01811102
:1003C00068C010920401109205011092060110926B
:1003D0000701109208011092090110920A0110926F
:1003E0000B0110920C0110920D0110920E0110924F
:1003F0000F0110921001109211011092120110922F
:10040000130184E091E09093150180931401809191
:100410001A0190911B01A0911C01B0911D018093C4
:10042000160190931701A0931801B09319010E942F
:10043000140160931A0170931B0180931C01909327
:100440001D0160E082E00E94D80060E083E00E942D
:10045000D80061E089E00E94D8008DE892E0909396
:10046000010180930001809169008360809369009D
:10047000E89A8CE492E090930301809302018091CA
:100480006900837F886080936900E99A81E08093A6
:100490001E0184E091E008950F931F93CF93DF93A3
:1004A0000E94DD01EC018E899F89A88DB98D8A8B10
:1004B0009B8BAC8BBD8B0E9414016E8B7F8B888FC6
:1004C000998FE889F9890081118122813381012B7B
:1004D000022B032B41F00481158126813781012BEA
:1004E000022B032BA9F40A891B892C893D89DC0185
:1004F000CB01801B910BA20BB30B80839183A28352
:10050000B383CE01DF91CF911F910F910C943A01EB
:10051000DF91CF911F910F9108950F931F93CF9368
:10052000DF930E94DD01EC018E899F89A88DB98D32
:100530008A8B9B8BAC8BBD8B0E9414016E8B7F8B47
:10054000888F998FE889F98900811181228133810F
:10055000012B022B032B41F0048115812681378169
:10056000012B022B032BA9F40A891B892C893D89B5
:10057000DC01CB01801B910BA20BB30B8483958311
:10058000A683B783CE01DF91CF911F910F910C9479
:100590003A01DF91CF911F910F9108951F920F9211
:1005A0000FB60F9211242F933F938F939F93AF9386
:1005B000BF938091320390913303A0913403B091A3
:1005C00035033091310326E0230F2D3720F40296B6
:1005D000A11DB11D05C029E8230F0396A11DB11D62
:1005E000209331038093320390933303A093340319
:1005F000B09335038091360390913703A09138036F
:10060000B09139030196A11DB11D809336039093DB
:100610003703A0933803B0933903BF91AF919F91F3
:100620008F913F912F910F900FBE0F901F901895B3
:100630001F920F920FB60F9211242F933F934F9357
:100640005F936F937F938F939F93AF93BF93EF933A
:10065000FF93E0910201F09103010995FF91EF9161
:10066000BF91AF919F918F917F916F915F914F91CA
:100670003F912F910F900FBE0F901F9018951F92D2
:100680000F920FB60F9211242F933F934F935F93C6
:100690006F937F938F939F93AF93BF93EF93FF934A
:1006A000E0910001F09101010995FF91EF91BF9157
:1006B000AF919F918F917F916F915F914F913F91FA
:1006C0002F910F900FBE0F901F9018951F920F92B1
:1006D0000FB60F9211242F933F934F935F936F9315
:1006E0007F938F939F93AF93BF93EF93FF938091EB
:1006F000290381113DC080E091E0E6E2F1E0DF01F5
:100700009C011D9221503040E1F7E6E2F2E0DF016A
:100710009C011D9221503040E1F710922603109267
:10072000270310922803F8941092B0008091B00033
:1007300082608093B0001092B1008091B10083601C
:100740008093B10085E48093B30010927000809193
:100750007000826080937000789461E084E00E9471
:10076000D80060E084E00E94A90081E08093290322
:1007700020912803222311F18091260390912703D1
:100780008917A9F0E82FF0E0EA5DFE4F9081692F0C
:10079000661F6627661F990F9083F3959081990FC6
:1007A0009083911106C08F5F8093260302C060E0A2
:1007B00020E02093280384E00E94A900FF91EF919C
:1007C000BF91AF919F918F917F916F915F914F9169
:1007D0003F912F910F900FBE0F901F901895789416
:1007E00084B5826084BD84B5816084BD85B5826036
:1007F00085BD85B5816085BD80916E0081608093E7
:100800006E0010928100809181008260809381004F
:10081000809181008160809381008091800081605F
:10082000809380008091B10084608093B1008091BA
:10083000B00081608093B00080917A0084608093E2
:100840007A0080917A00826080937A0080917A00A9
:100850008E7F80937A0080917A00806880937A00FE
:100860001092C100C0E0D0E00E94DD012097E1F3CA
:0A0870000E940000F9CFF894FFCFBA
:04087A003901390106
:107800000C94343C0C94513C0C94513C0C94513CE1
:107810000C94513C0C94513C0C94513C0C94513CB4
:107820000C94513C0C94513C0C94513C0C94513CA4
:107830000C94513C0C94513C0C94513C0C94513C94
:107840000C94513C0C94513C0C94513C0C94513C84
:107850000C94513C0C94513C0C94513C0C94513C74
:107860000C94513C0C94513C11241FBECFEFD8E036
:10787000DEBFCDBF11E0A0E0B1E0EAE8FFE702C063
:1078800005900D92A230B107D9F712E0A2E0B1E065
:1078900001C01D92AD30B107E1F70E942D3D0C945F
:1078A000C33F0C94003C982F95959595959595958B
:1078B000905D8F708A307CF0282F295A8091C0000B
:1078C00085FFFCCF9093C6008091C00085FFFCCF60
:1078D0002093C6000895282F205DF0CF982F809127
:1078E000C00085FFFCCF9093C6000895EF92FF92F1
:1078F0000F931F93EE24FF2487018091C00087FD22
:1079000017C00894E11CF11C011D111D81E2E8164D
:1079100081EAF80687E0080780E0180770F3E09135
:107920000401F091050109958091C00087FFE9CF1E
:107930008091C6001F910F91FF90EF9008950E94D3
:10794000763C982F8091C00085FFFCCF9093C600B5
:1079500091362CF490330CF09053892F089597555D
:10796000892F08951F930E949F3C182F0E949F3CCF
:107970001295107F810F1F9108951F93182F882350
:1079800021F00E94763C1150E1F71F9108951F935A
:10799000182F0E94763C803249F0809103018F5F5E
:1079A000809303018530C1F01F9108958091C0003C
:1079B00085FFFCCF84E18093C6008091C00085FFE5
:1079C000FCCF1093C6008091C00085FFFCCF80E102
:1079D0008093C6001F910895E0910401F091050184
:1079E00009951F9108950E94763C803241F0809164
:1079F00003018F5F80930301853081F008958091AA
:107A0000C00085FFFCCF84E18093C6008091C00058
:107A100085FFFCCF80E18093C6000895E0910401CA
:107A2000F09105010995089548EC50E08823A1F0F4
:107A30002D9A28EE33E0FA013197F1F721503040CA
:107A4000D1F72D9828EE33E0FA013197F1F7215064
:107A50003040D1F7815061F708953F924F925F9285
:107A60006F927F928F929F92AF92BF92CF92DF924E
:107A7000EF92FF920F931F93CF93DF93000082E06A
:107A80008093C00080E18093C4001092C50088E11B
:107A90008093C10086E08093C2005098589A259A3E
:107AA00081E00E94143D24E1F22E9EE1E92E85E959
:107AB000D82E0FE0C02E10E1B12EAA24A394B1E479
:107AC0009B2EA6E58A2EF2E57F2EE0E26E2E79E46B
:107AD000572E63E5462E50E5352E0E94763C8033C6
:107AE000B1F18133B9F1803409F46FC0813409F404
:107AF00076C0823409F485C0853409F488C08035A5
:107B000031F1823521F1813511F1853509F485C0D6
:107B1000863509F48DC0843609F496C0843709F49B
:107B200003C1853709F472C1863709F466C08091B4
:107B300003018F5F80930301853079F6E0910401A2
:107B4000F091050109950E94763C803351F60E9420
:107B5000F33CC3CF0E94763C803249F78091C0004D
:107B600085FFFCCFF092C6008091C00085FFFCCF5E
:107B70009092C6008091C00085FFFCCF8092C60025
:107B80008091C00085FFFCCF7092C6008091C0003C
:107B900085FFFCCF6092C6008091C00085FFFCCFBE
:107BA0005092C6008091C00085FFFCCF4092C60075
:107BB0008091C00085FFFCCF3092C6008091C0004C
:107BC00085FFFCCFB092C60088CF0E94763C8638F5
:107BD00008F4BDCF0E94763C0E94F33C7ECF0E9409
:107BE000763C803809F49CC0813809F40BC1823896
:107BF00009F430C1883909F48FC080E00E94C73C85
:107C00006CCF84E10E94BD3C0E94F33C66CF85E0CE
:107C10000E94BD3C0E94F33C60CF0E94763C809362
:107C200006010E94763C809307010E94F33C55CFE9
:107C30000E94763C803309F411C183E00E94BD3C70
:107C400080E00E94C73C49CF0E94763C80930902A5
:107C50000E94763C8093080280910C028E7F809374
:107C60000C020E94763C853409F409C18091080217
:107C700090910902892B89F000E010E00E94763C87
:107C8000F801E85FFE4F80830F5F1F4F809108026D
:107C9000909109020817190788F30E94763C8032F8
:107CA00009F045CF80910C0280FFF5C0609106017C
:107CB00070910701660F771F7093070160930601AB
:107CC000A0910802B09109021097C9F0E8E0F1E034
:107CD0009B01AD014E0F5F1FF999FECF32BD21BD53
:107CE000819180BDFA9AF99A2F5F3F4FE417F5070B
:107CF00099F76A0F7B1F70930701609306018091CB
:107D0000C00085FFFCCFF092C6008091C00085FFC7
:107D1000FCCFB092C600E1CE83E00E94C73CDDCE2E
:107D200082E00E94C73CD9CE0E94763C8093090233
:107D30000E94763C80930802809106019091070191
:107D4000880F991F90930701809306010E94763C4B
:107D5000853409F49AC080910C028E7F80930C02C6
:107D60000E94763C803209F0B8CE8091C00085FF39
:107D7000FCCFF092C600A0910802B09109021097C2
:107D8000C1F180910C02082F0170182F1695117007
:107D9000E0910601F0910701AF014F5F5F4FBA011B
:107DA00020E030E00023B1F4112339F49491809164
:107DB000C00085FFFCCF9093C6002F5F3F4FCB01E3
:107DC0000196FA012A173B0780F4BC014F5F5F4F11
:107DD000002351F3F999FECFF2BDE1BDF89A90B5B9
:107DE0008091C00085FFFCCFE6CF709307016093C0
:107DF00006018091C00085FDE5CE8091C00085FF21
:107E0000F8CFE0CE81E00E94C73C67CE0E94763C6E
:107E1000803209F08CCE8091C00085FFFCCFF092BB
:107E2000C6008091C00085FFFCCFE092C600809123
:107E3000C00085FFFCCFD092C6008091C00085FFB6
:107E4000FCCFC092C6008091C00085FFFCCFB092ED
:107E5000C60043CE80E10E94C73C3FCE0E94763CE4
:107E60000E94763C182F0E94763C112309F483C0AF
:107E7000113009F484C08FE00E94C73C2ECE80915F
:107E80000C02816080930C02F1CE80910C02816023
:107E900080930C0265CF809107018823880F880B9F
:107EA0008A2180930B028091060190910701880F2F
:107EB000991F90930701809306018091080280FF2B
:107EC00009C08091080290910902019690930902DD
:107ED00080930802F894F999FECF1127E0910601EA
:107EE000F0910701C8E0D1E0809108029091090269
:107EF000103091F40091570001700130D9F303E084
:107F000000935700E8950091570001700130D9F3B4
:107F100001E100935700E8950990199000915700EE
:107F200001700130D9F301E000935700E8951395F3
:107F3000103498F011270091570001700130D9F3E7
:107F400005E000935700E89500915700017001305B
:107F5000D9F301E100935700E8953296029709F0B2
:107F6000C7CF103011F00296E5CF11248091C000E8
:107F700085FFC5CEC8CE8EE10E94C73CAECD85E957
:0A7F80000E94C73CAACDF894FFCF81
:027F8A00800075
:040000030000780081
:00000001FF