:100000000C945C000C946E000C946E000C946E00CA
:100010000C946E000C946E000C946E000C94920183
:100020000C946E000C946E000C946E000C946E0098
:100030000C946E000C946E000C946E000C946E0088
:100040000C9448010C946E000C946E000C946E009D
:100050000C946E000C946E000C946E000C946E0068
:100060000C946E000C946E00000000002400270029
:100070002A0000000000250028002B0004040404CE
:100080000404040402020202020203030303030342
:10009000010204081020408001020408102001021F
:1000A00004081020000000080002010000030407FB
:1000B000000000000000000011241FBECFEFD8E0B8
:1000C000DEBFCDBF23E0A0E0B1E001C01D92A431AE
:1000D000B207E1F70E94E1010C9422040C940000A5
:1000E000E8EAF0E09491E4E9F0E02491E0E8F0E05F
:1000F000E491EE2309F43CC0992339F1933091F057
:1001000038F49130A9F0923001F594B59F7D12C07A
:10011000973091F09830A1F09430B9F4909180002C
:100120009F7D03C0909180009F77909380000DC0C9
:1001300094B59F7794BD09C09091B0009F7703C09C
:100140009091B0009F7D9093B000F0E0EE0FFF1F04
:10015000EE58FF4FA591B4919FB7F894811104C058
:100160008C912095282302C0EC912E2B2C939FBFBD
:1001700008953FB7F8948091100390911103A091D6
:100180001203B091130326B5A89B05C02F3F19F0A9
:100190000196A11DB11D3FBFBA2FA92F982F882707
:1001A000820F911DA11DB11DBC01CD0143E0660F61
:1001B000771F881F991F4A95D1F70895FC01EF5FBB
:1001C000FD4F2081DB013C91DC01A20FB11D3C936E
:1001D000B3953FEF3C932F5F2083089580910303F5
:1001E000811153C080E091E0E0E0F1E0DF019C018B
:1001F0001D9221503040E1F7E0E0F2E0DF019C0188
:100200001D9221503040E1F710920003109201033B
:1002100010920203F8941092B0008091B0008260B6
:100220008093B0001092B1008091B1008360809300
:10023000B10085E48093B30010927000809170004B
:100240008260809370007894E4E9F0E02491E0E823
:10025000F0E08491882399F090E0880F991FFC01C9
:10026000E859FF4FA591B491FC01EE58FF4F8591DD
:1002700094918FB7F894EC91E22BEC938FBF80E0D0
:100280000E94700081E08093030380E091E0089574
:100290001F920F920FB60F9211242F933F938F93BB
:1002A0009F93AF93BF9380910C0390910D03A09106
:1002B0000E03B0910F0330910B0326E0230F2D376F
:1002C00020F40296A11DB11D05C029E8230F039655
:1002D000A11DB11D20930B0380930C0390930D037C
:1002E000A0930E03B0930F0380911003909111031C
:1002F000A0911203B09113030196A11DB11D80932B
:10030000100390931103A0931203B0931303BF91B2
:10031000AF919F918F913F912F910F900FBE0F90B2
:100320001F9018951F920F920FB60F9211242F93C2
:100330003F934F935F936F937F938F939F93AF936D
:10034000BF93CF93DF93EF93FF930E94EE00DC0106
:10035000AE5FBD4F3C91332309F1EC01DE5F288194
:10036000FC01EF5FFD4F4081241799F0FC01E20F83
:10037000F11D9081892F881F8827881F990F9083EE
:10038000F3959081990F9083911105C02F5F288379
:1003900002C080E030E03C930E947000FF91EF913A
:1003A000DF91CF91BF91AF919F918F917F916F918D
:1003B0005F914F913F912F910F900FBE0F901F9023
:1003C0001895CF93DF931F92CDB7DEB7789484B59D
:1003D000826084BD84B5816084BD85B5826085BD41
:1003E00085B5816085BD80916E00816080936E00CF
:1003F00010928100809181008260809381008091C1
:100400008100816080938100809180008160809371
:1004100080008091B10084608093B1008091B00031
:1004200081608093B00080917A00846080937A002C
:1004300080917A00826080937A0080917A008E7F2A
:1004400080937A0080917A00806880937A0010927D
:10045000C1000E94EE0011E10DE17DEDF72EE0E01C
:100460002E2EE0E03E2E51E8C52EEE24EA9461EDFA
:10047000D62E33E0632E712C4CE1542EE9820E947B
:10048000EE00BE016F5F7F4F0E94DE00E9820E9496
:10049000EE00BE016F5F7F4F0E94DE00C9820E94A6
:1004A000EE00BE016F5F7F4F0E94DE0019830E9445
:1004B000EE00BE016F5F7F4F0E94DE0009830E9445
:1004C000EE00BE016F5F7F4F0E94DE00F9820E9446
:1004D000EE00BE016F5F7F4F0E94DE00D9820E9456
:1004E000EE00BE016F5F7F4F0E94DE0019830E9405
:1004F000EE00BE016F5F7F4F0E94DE00F9820E9416
:10050000EE00BE016F5F7F4F0E94DE0019830E94E4
:10051000EE00BE016F5F7F4F0E94DE00F9820E94F5
:10052000EE00BE016F5F7F4F0E94DE0019830E94C4
:10053000EE00BE016F5F7F4F0E94DE0009830E94C4
:10054000EE00BE016F5F7F4F0E94DE0019830E94A4
:10055000EE00BE016F5F7F4F0E94DE0009830E94A4
:10056000EE00BE016F5F7F4F0E94DE0009830E9494
:10057000EE00BE016F5F7F4F0E94DE00F9820E9495
:10058000EE00BE016F5F7F4F0E94DE0019830E9464
:10059000EE00BE016F5F7F4F0E94DE00D9820E9495
:1005A000EE00BE016F5F7F4F0E94DE0019830E9444
:1005B000EE00BE016F5F7F4F0E94DE0009830E9444
:1005C000EE00BE016F5F7F4F0E94DE0019830E9424
:1005D000EE00BE016F5F7F4F0E94DE0059820E94D5
:1005E000EE00BE016F5F7F4F0E94DE0019820E9405
:1005F000EE00BE016F5F7F4F0E94DE0019820E94F5
:10060000EE00BE016F5F7F4F0E94DE0019820E94E4
:10061000EE00BE016F5F7F4F0E94DE0021E0621A94
:10062000710809F02BCF96E0692E712C20ED522E27
:10063000E9820E94EE00BE016F5F7F4F0E94DE00E4
:10064000E9820E94EE00BE016F5F7F4F0E94DE00D4
:10065000C9820E94EE00BE016F5F7F4F0E94DE00E4
:1006600019830E94EE00BE016F5F7F4F0E94DE0083
:1006700009830E94EE00BE016F5F7F4F0E94DE0083
:10068000F9820E94EE00BE016F5F7F4F0E94DE0084
:10069000D9820E94EE00BE016F5F7F4F0E94DE0094
:1006A00019830E94EE00BE016F5F7F4F0E94DE0043
:1006B000F9820E94EE00BE016F5F7F4F0E94DE0054
:1006C00019830E94EE00BE016F5F7F4F0E94DE0023
:1006D000F9820E94EE00BE016F5F7F4F0E94DE0034
:1006E00019830E94EE00BE016F5F7F4F0E94DE0003
:1006F00009830E94EE00BE016F5F7F4F0E94DE0003
:1007000019830E94EE00BE016F5F7F4F0E94DE00E2
:1007100009830E94EE00BE016F5F7F4F0E94DE00E2
:1007200009830E94EE00BE016F5F7F4F0E94DE00D2
:10073000F9820E94EE00BE016F5F7F4F0E94DE00D3
:1007400019830E94EE00BE016F5F7F4F0E94DE00A2
:10075000D9820E94EE00BE016F5F7F4F0E94DE00D3
:1007600019830E94EE00BE016F5F7F4F0E94DE0082
:1007700009830E94EE00BE016F5F7F4F0E94DE0082
:10078000F9820E94EE00BE016F5F7F4F0E94DE0083
:1007900059820E94EE00BE016F5F7F4F0E94DE0013
:1007A00019820E94EE00BE016F5F7F4F0E94DE0043
:1007B00019820E94EE00BE016F5F7F4F0E94DE0033
:1007C00019820E94EE00BE016F5F7F4F0E94DE0023
:1007D00081E0681A710809F02BCF0E94EE008E5F4D
:1007E0009D4F21E0FC0120830E94B9004B015C0178
:1007F00088E8482E83E1582E612C712C0E94B900A4
:10080000DC01CB0188199909AA09BB09883E9340EC
:10081000A105B10598F3F1E04F1A5108610871087C
:1008200028EE820E23E0921EA11CB11C411451043B
:100830006104710419F72114310409F41ACE0E94DD
:08084000000011CEF894FFCF77
:00000001FF
