:100000000C945C000C946E000C946E000C946E00CA
:100010000C946E000C946E000C946E000C94920183
:100020000C946E000C946E000C946E000C946E0098
:100030000C946E000C946E000C946E000C946E0088
:100040000C9448010C946E000C946E000C946E009D
:100050000C946E000C946E000C946E000C946E0068
:100060000C946E000C946E00000000002400270029
:100070002A0000000000250028002B0004040404CE
:100080000404040402020202020203030303030342
:10009000010204081020408001020408102001021F
:1000A00004081020000000080002010000030407FB
:1000B000000000000000000011241FBECFEFD8E0B8
:1000C000DEBFCDBF23E0A0E0B1E001C01D92A431AE
:1000D000B207E1F70E94E1010C9422040C940000A5
:1000E000E8EAF0E09491E4E9F0E02491E0E8F0E05F
:1000F000E491EE2309F43CC0992339F1933091F057
:1001000038F49130A9F0923001F594B59F7D12C07A
:10011000973091F09830A1F09430B9F4909180002C
:100120009F7D03C0909180009F77909380000DC0C9
:1001300094B59F7794BD09C09091B0009F7703C09C
:100140009091B0009F7D9093B000F0E0EE0FFF1F04
:10015000EE58FF4FA591B4919FB7F894811104C058
:100160008C912095282302C0EC912E2B2C939FBFBD
:1001700008953FB7F8948091100390911103A091D6
:100180001203B091130326B5A89B05C02F3F19F0A9
:100190000196A11DB11D3FBFBA2FA92F982F882707
:1001A000820F911DA11DB11DBC01CD0143E0660F61
:1001B000771F881F991F4A95D1F70895FC01EF5FBB
:1001C000FD4F2081DB013C91DC01A20FB11D3C936E
:1001D000B3953FEF3C932F5F2083089580910303F5
:1001E000811153C080E091E0E0E0F1E0DF019C018B
:1001F0001D9221503040E1F7E0E0F2E0DF019C0188
:100200001D9221503040E1F710920003109201033B
:1002100010920203F8941092B0008091B0008260B6
:100220008093B0001092B1008091B1008360809300
:10023000B10085E48093B30010927000809170004B
:100240008260809370007894E4E9F0E02491E0E823
:10025000F0E08491882399F090E0880F991FFC01C9
:10026000E859FF4FA591B491FC01EE58FF4F8591DD
:1002700094918FB7F894EC91E22BEC938FBF80E0D0
:100280000E94700081E08093030380E091E0089574
:100290001F920F920FB60F9211242F933F938F93BB
:1002A0009F93AF93BF9380910C0390910D03A09106
:1002B0000E03B0910F0330910B0326E0230F2D376F
:1002C00020F40296A11DB11D05C029E8230F039655
:1002D000A11DB11D20930B0380930C0390930D037C
:1002E000A0930E03B0930F0380911003909111031C
:1002F000A0911203B09113030196A11DB11D80932B
:10030000100390931103A0931203B0931303BF91B2
:10031000AF919F918F913F912F910F900FBE0F90B2
:100320001F9018951F920F920FB60F9211242F93C2
:100330003F934F935F936F937F938F939F93AF936D
:10034000BF93CF93DF93EF93FF930E94EE00DC0106
:10035000AE5FBD4F3C91332309F1EC01DE5F288194
:10036000FC01EF5FFD4F4081241799F0FC01E20F83
:10037000F11D9081892F881F8827881F990F9083EE
:10038000F3959081990F9083911105C02F5F288379
:1003900002C080E030E03C930E947000FF91EF913A
:1003A000DF91CF91BF91AF919F918F917F916F918D
:1003B0005F914F913F912F910F900FBE0F901F9023
:1003C0001895CF93DF931F92CDB7DEB7789484B59D
:1003D000826084BD84B5816084BD85B5826085BD41
:1003E00085B5816085BD80916E00816080936E00CF
:1003F00010928100809181008260809381008091C1
:100400008100816080938100809180008160809371
:1004100080008091B10084608093B1008091B00031
:1004200081608093B00080917A00846080937A002C
:1004300080917A00826080937A0080917A008E7F2A
:1004400080937A0080917A00806880937A0010927D
:10045000C1000E94EE0011E10DE17DEDF72EE0E01C
:100460002E2EE0E03E2E51E8C52EEE24EA9461EDFA
:10047000D62E33E0632E712C4CE1542EE9820E947B
:10048000EE00BE016F5F7F4F0E94DE00E9820E9496
:10049000EE00BE016F5F7F4F0E94DE00C9820E94A6
:1004A000EE00BE016F5F7F4F0E94DE0019830E9445
:1004B000EE00BE016F5F7F4F0E94DE0009830E9445
:1004C000EE00BE016F5F7F4F0E94DE00F9820E9446
:1004D000EE00BE016F5F7F4F0E94DE00D9820E9456
:1004E000EE00BE016F5F7F4F0E94DE0019830E9405
:1004F000EE00BE016F5F7F4F0E94DE00F9820E9416
:10050000EE00BE016F5F7F4F0E94DE0019830E94E4
:10051000EE00BE016F5F7F4F0E94DE00F9820E94F5
:10052000EE00BE016F5F7F4F0E94DE0019830E94C4
:10053000EE00BE016F5F7F4F0E94DE0009830E94C4
:10054000EE00BE016F5F7F4F0E94DE0019830E94A4
:10055000EE00BE016F5F7F4F0E94DE0009830E94A4
:10056000EE00BE016F5F7F4F0E94DE0009830E9494
:10057000EE00BE016F5F7F4F0E94DE00F9820E9495
:10058000EE00BE016F5F7F4F0E94DE0019830E9464
:10059000EE00BE016F5F7F4F0E94DE00D9820E9495
:1005A000EE00BE016F5F7F4F0E94DE0019830E9444
:1005B000EE00BE016F5F7F4F0E94DE0009830E9444
:1005C000EE00BE016F5F7F4F0E94DE0019830E9424
:1005D000EE00BE016F5F7F4F0E94DE0059820E94D5
:1005E000EE00BE016F5F7F4F0E94DE0019820E9405
:1005F000EE00BE016F5F7F4F0E94DE0019820E94F5
:10060000EE00BE016F5F7F4F0E94DE0019820E94E4
:10061000EE00BE016F5F7F4F0E94DE0021E0621A94
:10062000710809F02BCF96E0692E712C20ED522E27
:10063000E9820E94EE00BE016F5F7F4F0E94DE00E4
:10064000E9820E94EE00BE016F5F7F4F0E94DE00D4
:10065000C9820E94EE00BE016F5F7F4F0E94DE00E4
:1006600019830E94EE00BE016F5F7F4F0E94DE0083
:1006700009830E94EE00BE016F5F7F4F0E94DE0083
:10068000F9820E94EE00BE016F5F7F4F0E94DE0084
:10069000D9820E94EE00BE016F5F7F4F0E94DE0094
:1006A00019830E94EE00BE016F5F7F4F0E94DE0043
:1006B000F9820E94EE00BE016F5F7F4F0E94DE0054
:1006C00019830E94EE00BE016F5F7F4F0E94DE0023
:1006D000F9820E94EE00BE016F5F7F4F0E94DE0034
:1006E00019830E94EE00BE016F5F7F4F0E94DE0003
:1006F00009830E94EE00BE016F5F7F4F0E94DE0003
:1007000019830E94EE00BE016F5F7F4F0E94DE00E2
:1007100009830E94EE00BE016F5F7F4F0E94DE00E2
:1007200009830E94EE00BE016F5F7F4F0E94DE00D2
:10073000F9820E94EE00BE016F5F7F4F0E94DE00D3
:1007400019830E94EE00BE016F5F7F4F0E94DE00A2
:10075000D9820E94EE00BE016F5F7F4F0E94DE00D3
:1007600019830E94EE00BE016F5F7F4F0E94DE0082
:1007700009830E94EE00BE016F5F7F4F0E94DE0082
:10078000F9820E94EE00BE016F5F7F4F0E94DE0083
:1007900059820E94EE00BE016F5F7F4F0E94DE0013
:1007A00019820E94EE00BE016F5F7F4F0E94DE0043
:1007B00019820E94EE00BE016F5F7F4F0E94DE0033
:1007C00019820E94EE00BE016F5F7F4F0E94DE0023
:1007D00081E0681A710809F02BCF0E94EE008E5F4D
:1007E0009D4F21E0FC0120830E94B9004B015C0178
:1007F00088E8482E83E1582E612C712C0E94B900A4
:10080000DC01CB0188199909AA09BB09883E9340EC
:10081000A105B10598F3F1E04F1A5108610871087C
:1008200028EE820E23E0921EA11CB11C411451043B
:100830006104710419F72114310409F41ACE0E94DD
:08084000000011CEF894FFCF77
:107800000C94343C0C94513C0C94513C0C94513CE1
:107810000C94513C0C94513C0C94513C0C94513CB4
:107820000C94513C0C94513C0C94513C0C94513CA4
:107830000C94513C0C94513C0C94513C0C94513C94
:107840000C94513C0C94513C0C94513C0C94513C84
:107850000C94513C0C94513C0C94513C0C94513C74
:107860000C94513C0C94513C11241FBECFEFD8E036
:10787000DEBFCDBF11E0A0E0B1E0EAE8FFE702C063
:1078800005900D92A230B107D9F712E0A2E0B1E065
:1078900001C01D92AD30B107E1F70E942D3D0C945F
:1078A000C33F0C94003C982F95959595959595958B
:1078B000905D8F708A307CF0282F295A8091C0000B
:1078C00085FFFCCF9093C6008091C00085FFFCCF60
:1078D0002093C6000895282F205DF0CF982F809127
:1078E000C00085FFFCCF9093C6000895EF92FF92F1
:1078F0000F931F93EE24FF2487018091C00087FD22
:1079000017C00894E11CF11C011D111D81E2E8164D
:1079100081EAF80687E0080780E0180770F3E09135
:107920000401F091050109958091C00087FFE9CF1E
:107930008091C6001F910F91FF90EF9008950E94D3
:10794000763C982F8091C00085FFFCCF9093C600B5
:1079500091362CF490330CF09053892F089597555D
:10796000892F08951F930E949F3C182F0E949F3CCF
:107970001295107F810F1F9108951F93182F882350
:1079800021F00E94763C1150E1F71F9108951F935A
:10799000182F0E94763C803249F0809103018F5F5E
:1079A000809303018530C1F01F9108958091C0003C
:1079B00085FFFCCF84E18093C6008091C00085FFE5
:1079C000FCCF1093C6008091C00085FFFCCF80E102
:1079D0008093C6001F910895E0910401F091050184
:1079E00009951F9108950E94763C803241F0809164
:1079F00003018F5F80930301853081F008958091AA
:107A0000C00085FFFCCF84E18093C6008091C00058
:107A100085FFFCCF80E18093C6000895E0910401CA
:107A2000F09105010995089548EC50E08823A1F0F4
:107A30002D9A28EE33E0FA013197F1F721503040CA
:107A4000D1F72D9828EE33E0FA013197F1F7215064
:107A50003040D1F7815061F708953F924F925F9285
:107A60006F927F928F929F92AF92BF92CF92DF924E
:107A7000EF92FF920F931F93CF93DF93000082E06A
:107A80008093C00080E18093C4001092C50088E11B
:107A90008093C10086E08093C2005098589A259A3E
:107AA00081E00E94143D24E1F22E9EE1E92E85E959
:107AB000D82E0FE0C02E10E1B12EAA24A394B1E479
:107AC0009B2EA6E58A2EF2E57F2EE0E26E2E79E46B
:107AD000572E63E5462E50E5352E0E94763C8033C6
:107AE000B1F18133B9F1803409F46FC0813409F404
:107AF00076C0823409F485C0853409F488C08035A5
:107B000031F1823521F1813511F1853509F485C0D6
:107B1000863509F48DC0843609F496C0843709F49B
:107B200003C1853709F472C1863709F466C08091B4
:107B300003018F5F80930301853079F6E0910401A2
:107B4000F091050109950E94763C803351F60E9420
:107B5000F33CC3CF0E94763C803249F78091C0004D
:107B600085FFFCCFF092C6008091C00085FFFCCF5E
:107B70009092C6008091C00085FFFCCF8092C60025
:107B80008091C00085FFFCCF7092C6008091C0003C
:107B900085FFFCCF6092C6008091C00085FFFCCFBE
:107BA0005092C6008091C00085FFFCCF4092C60075
:107BB0008091C00085FFFCCF3092C6008091C0004C
:107BC00085FFFCCFB092C60088CF0E94763C8638F5
:107BD00008F4BDCF0E94763C0E94F33C7ECF0E9409
:107BE000763C803809F49CC0813809F40BC1823896
:107BF00009F430C1883909F48FC080E00E94C73C85
:107C00006CCF84E10E94BD3C0E94F33C66CF85E0CE
:107C10000E94BD3C0E94F33C60CF0E94763C809362
:107C200006010E94763C809307010E94F33C55CFE9
:107C30000E94763C803309F411C183E00E94BD3C70
:107C400080E00E94C73C49CF0E94763C80930902A5
:107C50000E94763C8093080280910C028E7F809374
:107C60000C020E94763C853409F409C18091080217
:107C700090910902892B89F000E010E00E94763C87
:107C8000F801E85FFE4F80830F5F1F4F809108026D
:107C9000909109020817190788F30E94763C8032F8
:107CA00009F045CF80910C0280FFF5C0609106017C
:107CB00070910701660F771F7093070160930601AB
:107CC000A0910802B09109021097C9F0E8E0F1E034
:107CD0009B01AD014E0F5F1FF999FECF32BD21BD53
:107CE000819180BDFA9AF99A2F5F3F4FE417F5070B
:107CF00099F76A0F7B1F70930701609306018091CB
:107D0000C00085FFFCCFF092C6008091C00085FFC7
:107D1000FCCFB092C600E1CE83E00E94C73CDDCE2E
:107D200082E00E94C73CD9CE0E94763C8093090233
:107D30000E94763C80930802809106019091070191
:107D4000880F991F90930701809306010E94763C4B
:107D5000853409F49AC080910C028E7F80930C02C6
:107D60000E94763C803209F0B8CE8091C00085FF39
:107D7000FCCFF092C600A0910802B09109021097C2
:107D8000C1F180910C02082F0170182F1695117007
:107D9000E0910601F0910701AF014F5F5F4FBA011B
:107DA00020E030E00023B1F4112339F49491809164
:107DB000C00085FFFCCF9093C6002F5F3F4FCB01E3
:107DC0000196FA012A173B0780F4BC014F5F5F4F11
:107DD000002351F3F999FECFF2BDE1BDF89A90B5B9
:107DE0008091C00085FFFCCFE6CF709307016093C0
:107DF00006018091C00085FDE5CE8091C00085FF21
:107E0000F8CFE0CE81E00E94C73C67CE0E94763C6E
:107E1000803209F08CCE8091C00085FFFCCFF092BB
:107E2000C6008091C00085FFFCCFE092C600809123
:107E3000C00085FFFCCFD092C6008091C00085FFB6
:107E4000FCCFC092C6008091C00085FFFCCFB092ED
:107E5000C60043CE80E10E94C73C3FCE0E94763CE4
:107E60000E94763C182F0E94763C112309F483C0AF
:107E7000113009F484C08FE00E94C73C2ECE80915F
:107E80000C02816080930C02F1CE80910C02816023
:107E900080930C0265CF809107018823880F880B9F
:107EA0008A2180930B028091060190910701880F2F
:107EB000991F90930701809306018091080280FF2B
:107EC00009C08091080290910902019690930902DD
:107ED00080930802F894F999FECF1127E0910601EA
:107EE000F0910701C8E0D1E0809108029091090269
:107EF000103091F40091570001700130D9F303E084
:107F000000935700E8950091570001700130D9F3B4
:107F100001E100935700E8950990199000915700EE
:107F200001700130D9F301E000935700E8951395F3
:107F3000103498F011270091570001700130D9F3E7
:107F400005E000935700E89500915700017001305B
:107F5000D9F301E100935700E8953296029709F0B2
:107F6000C7CF103011F00296E5CF11248091C000E8
:107F700085FFC5CEC8CE8EE10E94C73CAECD85E957
:0A7F80000E94C73CAACDF894FFCF81
:027F8A00800075
:040000030000780081
:00000001FF