:100000000C9461000C9474030C944D030C947E00CA
:100010000C947E000C947E000C947E000C949B0348
:100020000C947E000C947E000C947E000C947E0058
:100030000C947E000C947E000C947E000C947E0048
:100040000C9403030C947E000C947E000C947E00B0
:100050000C947E000C947E000C947E000C947E0028
:100060000C947E000C947E00000000002400270009
:100070002A0000000000250028002B0000000000DE
:1000800023002600290004040404040404040202DA
:100090000202020203030303030301020408102007
:1000A0004080010204081020010204081020000012
:1000B0000008000201000003040700000000000027
:1000C000000011241FBECFEFD8E0DEBFCDBF11E08E
:1000D000A0E0B1E0E6E4F9E002C005900D92A430A2
:1000E000B107D9F723E1A4E0B1E001C01D92AE331E
:1000F000B207E1F70E9424040C94A1040C940000C0
:10010000833081F028F4813099F08230A1F0089595
:100110008730A9F08830B9F08430D1F48091800024
:100120008F7D03C0809180008F7780938000089539
:1001300084B58F7702C084B58F7D84BD089580918A
:10014000B0008F7703C08091B0008F7D8093B000A6
:100150000895CF93DF93282F30E0F901E255FF4F48
:100160008491F901E656FF4FD491F901EA57FF4F08
:10017000C491CC2391F081110E948000EC2FF0E01B
:10018000EE0FFF1FE458FF4FA591B491EC91ED23C2
:1001900081E090E021F480E002C080E090E0DF9117
:1001A000CF9108951F93CF93DF93282F30E0F9016B
:1001B000E255FF4F8491F901E656FF4FD491F901C2
:1001C000EA57FF4FC491CC23C1F0162F81110E9432
:1001D0008000EC2FF0E0EE0FFF1FEE58FF4FA591CF
:1001E000B4919FB7F894111104C08C91D095D82385
:1001F00002C0EC91DE2BDC939FBFDF91CF911F916A
:100200000895CF93DF9390E0FC01E656FF4F2491D1
:10021000FC01EA57FF4F8491882361F190E0880F39
:10022000991FFC01E859FF4FC591D491FC01EE588C
:10023000FF4FA591B491611109C09FB7F8948881CF
:10024000209582238883EC912E230BC0623061F4C9
:100250009FB7F8948881322F309583238883EC915F
:100260002E2B2C939FBF06C08FB7F894E8812E2BBE
:1002700028838FBFDF91CF9108953FB7F894809185
:100280003A1390913B13A0913C13B0913D1326B5C6
:10029000A89B05C02F3F19F00196A11DB11D3FBFBE
:1002A000BA2FA92F982F8827820F911DA11DB11D4C
:1002B000BC01CD0143E0660F771F881F991F4A9547
:1002C000D1F708950895CF92DF92EF92FF920F93A6
:1002D0001F93FC01DC01AC5EBF4E0D90BC91A02DC4
:1002E00014964D915D916D917C9117974115510533
:1002F0006105710539F10D911D912D913C91139777
:100300006A017B01CC0CDD1CEE1CFF1CC016D10663
:10031000E206F30660F482E0440F551F661F771F64
:100320008A95D1F7041715072607370758F01D924D
:100330001D921D921C92139714961D921D921D9250
:100340001C9217974D915D916D917C911397452B60
:10035000462B472BF1F014964D915D916D917C9158
:100360001797452B462B472BA1F0AE17BF0719F463
:10037000FD01E65FF74F1082118212821382148210
:100380001582168217828AE098E001900D920197FB
:10039000E1F71F910F91FF90EF90DF90CF900895BC
:1003A00080912211811170C01092040110920501F8
:1003B0001092060110920701109208011092090193
:1003C00010920A0110920B0110920C0910920D0963
:1003D00010920E0910920F09109210091092110933
:1003E0001092120910921309109214091092150913
:1003F000109216111092171184E091E09093191148
:100400008093181180911E1190911F11A0912011BD
:10041000B091211180931A1190931B11A0931C117C
:10042000B0931D110E943D0160931E1170931F1126
:10043000809320119093211160E082E00E940101DD
:1004400060E083E00E94010161E089E00E94010117
:1004500085EA92E090930101809300018091690008
:10046000836080936900E89A87E492E090930301A7
:100470008093020180916900837F88608093690086
:10048000E99A81E08093221184E091E00895CF926F
:10049000DF92EF92FF920F931F93CF93DF930E940F
:1004A000D001EC018C010A5E1F4E7C0186EEE81A39
:1004B0008FEEF80AF70180819181A281B381F80162
:1004C00080839183A283B3830E943D01D7016D9302
:1004D0007D938D939C931397FE01EC5EFF4E0190EC
:1004E000F081E02DC080D180E280F380CD28CE283D
:1004F000CF2841F0C480D580E680F780CD28CE2873
:10050000CF28D1F4D8010D911D912D913C91DC01A2
:10051000CB01801B910BA20BB30B80839183A28331
:10052000B383CE01DF91CF911F910F91FF90EF9098
:10053000DF90CF900C946301DF91CF911F910F91C9
:10054000FF90EF90DF90CF900895CF92DF92EF92DF
:10055000FF920F931F93CF93DF930E94D001EC0182
:100560008C010A5E1F4E7C0186EEE81A8FEEF80AB7
:10057000F70180819181A281B381F8018083918309
:10058000A283B3830E943D01D7016D937D938D9328
:100590009C931397FE01EC5EFF4E0190F081E02DDD
:1005A000C080D180E280F380CD28CE28CF2841F0D2
:1005B000C480D580E680F780CD28CE28CF28D1F41E
:1005C000D8010D911D912D913C91DC01CB01801B37
:1005D000910BA20BB30B84839583A683B783CE01C3
:1005E000DF91CF911F910F91FF90EF90DF90CF900F
:1005F0000C946301DF91CF911F910F91FF90EF90C9
:10060000DF90CF9008951F920F920FB60F92112492
:100610002F933F938F939F93AF93BF938091361304
:1006200090913713A0913813B0913913309135134D
:1006300026E0230F2D3720F40296A11DB11D05C021
:1006400029E8230F0396A11DB11D20933513809334
:10065000361390933713A0933813B09339138091C6
:100660003A1390913B13A0913C13B0913D13019626
:10067000A11DB11D80933A1390933B13A0933C139B
:10068000B0933D13BF91AF919F918F913F912F9167
:100690000F900FBE0F901F9018951F920F920FB6DC
:1006A0000F9211242F933F934F935F936F937F93F8
:1006B0008F939F93AF93BF93EF93FF93E0910201CA
:1006C000F09103010995FF91EF91BF91AF919F9137
:1006D0008F917F916F915F914F913F912F910F90EB
:1006E0000FBE0F901F9018951F920F920FB60F928A
:1006F00011242F933F934F935F936F937F938F9327
:100700009F93AF93BF93EF93FF93E0910001F0911C
:1007100001010995FF91EF91BF91AF919F918F9149
:100720007F916F915F914F913F912F910F900FBEED
:100730000F901F9018951F920F920FB60F921124D1
:100740002F933F934F935F936F937F938F939F93D9
:10075000AF93BF93EF93FF9380912D1381113DC011
:1007600080E091E0EAE2F1E1DF019C011D9221507D
:100770003040E1F7EAE2F2E1DF019C011D922150F5
:100780003040E1F710922A1310922B1310922C1381
:10079000F8941092B0008091B00082608093B00015
:1007A0001092B1008091B10083608093B10085E424
:1007B0008093B300109270008091700082608093EB
:1007C0007000789461E084E00E94010160E084E0C0
:1007D0000E94D20081E080932D1320912C132223BC
:1007E00011F180912A1390912B138917A9F0E82F0A
:1007F000F0E0E65DFE4E9081692F661F6627661F5A
:10080000990F9083F3959081990F9083911106C071
:100810008F5F80932A1302C060E020E020932C13A6
:1008200084E00E94D200FF91EF91BF91AF919F9120
:100830008F917F916F915F914F913F912F910F9089
:100840000FBE0F901F901895789484B5826084BD78
:1008500084B5816084BD85B5826085BD85B58160C4
:1008600085BD80916E00816080936E001092810042
:1008700080918100826080938100809181008160FD
:1008800080938100809180008160809380008091BE
:10089000B10084608093B1008091B000816080934A
:1008A000B00080917A00846080937A0080917A0011
:1008B000826080937A0080917A008E7F80937A00A4
:1008C00080917A00806880937A001092C100FF24A2
:1008D000F39480E0C82E80E0D82E0E94D0018C01D5
:1008E000FC01EC5EFF4EC081D18189E0C017D107C9
:1008F00091F40E94A9006F2D681B89E00E94D2002C
:10090000C65FD74F188219821A821B821C821D82F1
:100910001E821F8210C00E94A9006F2D681B89E0F3
:100920000E94D200F8011082118212821382148276
:10093000158216821782C114D10479F20E94000038
:06094000CCCFF894FFCFBC
:0409460062016201E7
:00000001FF
