:100000000C945C000C947E010C9457010C947900C4
:100010000C9479000C9479000C9479000C94A5014F
:100020000C9479000C9479000C9479000C9479006C
:100030000C9479000C9479000C9479000C9479005C
:100040000C940D010C9479000C9479000C947900B7
:100050000C9479000C9479000C9479000C9479003C
:100060000C9479000C947900000000002400270013
:100070002A0000000000250028002B0004040404CE
:100080000404040402020202020203030303030342
:10009000010204081020408001020408102001021F
:1000A00004081020000000080002010000030407FB
:1000B000000000000000000011241FBECFEFD8E0B8
:1000C000DEBFCDBF11E0A0E0B1E0E8E9F5E002C09D
:1000D00005900D92A430B107D9F723E0A4E0B1E078
:1000E00001C01D92A433B207E1F70E942E020C94C6
:1000F000CA020C94000090E0FC01EC55FF4F2491E3
:10010000FC01E057FF4F3491FC01E458FF4FE491AC
:10011000EE2309F43CC0222339F1233091F038F466
:100120002130A9F0223001F584B58F7D12C027302F
:1001300091F02830A1F02430B9F4809180008F7DB7
:1001400003C0809180008F77809380000DC084B5BC
:100150008F7784BD09C08091B0008F7703C08091F4
:10016000B0008F7D8093B000F0E0EE0FFF1FEE58DF
:10017000FF4FA591B4919FB7F894611104C08C9181
:100180003095382302C0EC913E2B3C939FBF0895DD
:1001900061E089E00C947B0060E089E00C947B00D6
:1001A000CF93DF9390E0FC01E057FF4F2491FC01D7
:1001B000E458FF4F8491882361F190E0880F991FE4
:1001C000FC01E859FF4FC591D491FC01EE58FF4F57
:1001D000A591B491611109C09FB7F89488812095C9
:1001E00082238883EC912E230BC0623061F49FB789
:1001F000F8948881322F309583238883EC912E2BBD
:100200002C939FBF06C08FB7F894E8812E2B2883CC
:100210008FBFDF91CF91089508951F920F920FB66F
:100220000F9211242F933F938F939F93AF93BF937C
:100230008091300390913103A0913203B091330348
:1002400030912F0326E0230F2D3720F40296A11DB5
:10025000B11D05C029E8230F0396A11DB11D2093F0
:100260002F038093300390933103A0933203B09314
:10027000330380912B0390912C03A0912D03B09117
:100280002E030196A11DB11D80932B0390932C0387
:10029000A0932D03B0932E03BF91AF919F918F91A7
:1002A0003F912F910F900FBE0F901F9018951F92A6
:1002B0000F920FB60F9211242F933F934F935F939A
:1002C0006F937F938F939F93AF93BF93EF93FF931E
:1002D000E0910201F09103010995FF91EF91BF9127
:1002E000AF919F918F917F916F915F914F913F91CE
:1002F0002F910F900FBE0F901F9018951F920F9285
:100300000FB60F9211242F933F934F935F936F93E8
:100310007F938F939F93AF93BF93EF93FF93E0915E
:100320000001F09101010995FF91EF91BF91AF910B
:100330009F918F917F916F915F914F913F912F91FD
:100340000F900FBE0F901F9018951F920F920FB62F
:100350000F9211242F933F934F935F936F937F934B
:100360008F939F93AF93BF93EF93FF938091070376
:1003700081113DC080E091E0E4E0F1E0DF019C010B
:100380001D9221503040E1F7E4E0F2E0DF019C01F2
:100390001D9221503040E1F71092040310920503A2
:1003A00010920603F8941092B0008091B000826021
:1003B0008093B0001092B1008091B100836080936F
:1003C000B10085E48093B3001092700080917000BA
:1003D000826080937000789461E084E00E94D00095
:1003E00060E084E00E947B0081E08093070320911D
:1003F0000603222311F180910403909105038917CC
:10040000A9F0E82FF0E0EC5FFE4F9081692F661FA6
:100410006627661F990F9083F3959081990F9083BB
:10042000911106C08F5F8093040302C060E020E05A
:100430002093060384E00E947B00FF91EF91BF911F
:10044000AF919F918F917F916F915F914F913F916C
:100450002F910F900FBE0F901F901895789484B530
:10046000826084BD84B5816084BD85B5826085BDB0
:1004700085B5816085BD80916E00816080936E003E
:100480001092810080918100826080938100809130
:1004900081008160809381008091800081608093E1
:1004A00080008091B10084608093B1008091B000A1
:1004B00081608093B00080917A00846080937A009C
:1004C00080917A00826080937A0080917A008E7F9A
:1004D00080937A0080917A00806880937A001092ED
:1004E000C1008091230381114EC010920F0310921E
:1004F0001003109211031092120310921303109222
:100500001403109215031092160310921803109200
:10051000190310921A0310921B0310921C031092DD
:100520001D0310921E0310921F038FE093E090931F
:1005300022038093210360E082E00E94D00060E00B
:1005400083E00E94D00061E089E00E94D00088EC46
:1005500090E0909301018093000180916900836095
:1005600080936900E89A8CEC90E09093030180936B
:10057000020180916900837F886080936900E99A15
:1005800081E080932303C0E0D0E02097F1F30E9444
:080590000000FBCFF894FFCF3F
:040598000C010C0145
:00000001FF
