:100000000C945C000C9403030C94DC020C947900B7
:100010000C9479000C9479000C9479000C942A03C8
:100020000C9479000C9479000C9479000C9479006C
:100030000C9479000C9479000C9479000C9479005C
:100040000C9492020C9479000C9479000C94790031
:100050000C9479000C9479000C9479000C9479003C
:100060000C9479000C947900000000002400270013
:100070002A0000000000250028002B0004040404CE
:100080000404040402020202020203030303030342
:10009000010204081020408001020408102001021F
:1000A00004081020000000080002010000030407FB
:1000B000000000000000000011241FBECFEFD8E0B8
:1000C000DEBFCDBF11E0A0E0B1E0E2E0F8E002C0A9
:1000D00005900D92A430B107D9F723E1A4E0B1E077
:1000E00001C01D92AE33B207E1F70E94B3030C9436
:1000F000FF030C94000090E0FC01EC55FF4F2491AD
:10010000FC01E057FF4F3491FC01E458FF4FE491AC
:10011000EE2309F43CC0222339F1233091F038F466
:100120002130A9F0223001F584B58F7D12C027302F
:1001300091F02830A1F02430B9F4809180008F7DB7
:1001400003C0809180008F77809380000DC084B5BC
:100150008F7784BD09C08091B0008F7703C08091F4
:10016000B0008F7D8093B000F0E0EE0FFF1FEE58DF
:10017000FF4FA591B4919FB7F894611104C08C9181
:100180003095382302C0EC913E2B3C939FBF0895DD
:10019000CF93DF9390E0FC01E057FF4F2491FC01E7
:1001A000E458FF4F8491882361F190E0880F991FF4
:1001B000FC01E859FF4FC591D491FC01EE58FF4F67
:1001C000A591B491611109C09FB7F89488812095D9
:1001D00082238883EC912E230BC0623061F49FB799
:1001E000F8948881322F309583238883EC912E2BCD
:1001F0002C939FBF06C08FB7F894E8812E2B2883DD
:100200008FBFDF91CF9108953FB7F89480913A1353
:1002100090913B13A0913C13B0913D1326B5A89B40
:1002200005C02F3F19F00196A11DB11D3FBFBA2F88
:10023000A92F982F8827820F911DA11DB11DBC01E8
:10024000CD0143E0660F771F881F991F4A95D1F7AC
:10025000089508950F931F93FC014081518162819D
:10026000738184819581A681B7814115510561050E
:10027000710529F4892B8A2B8B2B61F113C0009710
:10028000A105B105B9F08C019D01000F111F221FBE
:10029000331F000F111F221F331F041715072607D6
:1002A0003707E0F4108211821282138214821582C1
:1002B0001682178280819181A281B381892B8A2B3A
:1002C0008B2B41F084819581A681B781892B8A2B64
:1002D0008B2B11F480E00CC081E00AC0880F991FBD
:1002E000AA1FBB1F481759076A077B07D8F2EACF36
:1002F0001F910F91089580912211811170C0109269
:10030000040110920501109206011092070110924B
:1003100008011092090110920A0110920B0110922B
:100320000C0910920D0910920E0910920F091092EB
:1003300010091092110910921209109213091092CB
:10034000140910921509109216111092171184E0D9
:1003500091E0909319118093181180911E11909142
:100360001F11A0912011B091211180931A11909327
:100370001B11A0931C11B0931D110E9404016093E6
:100380001E1170931F11809320119093211160E032
:1003900082E00E94C80060E083E00E94C80061E043
:1003A0008AE00E94C80081E492E09093010180936A
:1003B000000180916900836080936900E89A86EF6C
:1003C00091E0909303018093020180916900837F03
:1003D000886080936900E99A81E08093221161E04E
:1003E0008AE00E947B0084E091E00895EF92FF9202
:1003F0000F931F93CF93DF930E947B01EC018C013D
:100400000A5E1F4E7C0186EEE81A8FEEF80AF701AD
:1004100080819181A281B381F80180839183A2833D
:10042000B3830E940401D7016D937D938D939C93B8
:100430001397CC5EDF4E888199810E942A01F701D3
:100440004081518162817381E881F981D8010D91E8
:100450001D912D913C91401B510B620B730B882316
:1004600029F0408751876287738704C04083518396
:1004700062837383DF91CF911F910F91FF90EF9073
:100480000895EF92FF920F931F93CF93DF930E94F3
:100490007B01EC018C010A5E1F4E7C0186EEE81A9E
:1004A0008FEEF80AF70180819181A281B381F80172
:1004B00080839183A283B3830E940401D7016D934B
:1004C0007D938D939C931397CC5EDF4E88819981A9
:1004D0000E942A01F7014081518162817381E88184
:1004E000F981D8010D911D912D913C91882359F0EE
:1004F000E85FFB4F401B510B620B730B4083518332
:100500006283738308C0401B510B620B730B4483DF
:10051000558366837783DF91CF911F910F91FF9071
:10052000EF9008951F920F920FB60F9211242F9300
:100530003F938F939F93AF93BF9380913613909186
:100540003713A0913813B09139133091351326E049
:10055000230F2D3720F40296A11DB11D05C029E8F7
:10056000230F0396A11DB11D2093351380933613DD
:1005700090933713A0933813B093391380913A13A3
:1005800090913B13A0913C13B0913D130196A11D96
:10059000B11D80933A1390933B13A0933C13B093F7
:1005A0003D13BF91AF919F918F913F912F910F90EC
:1005B0000FBE0F901F9018951F920F920FB60F92BB
:1005C00011242F933F934F935F936F937F938F9358
:1005D0009F93AF93BF93EF93FF93E0910201F0914C
:1005E00003010995FF91EF91BF91AF919F918F9179
:1005F0007F916F915F914F913F912F910F900FBE1F
:100600000F901F9018951F920F920FB60F92112402
:100610002F933F934F935F936F937F938F939F930A
:10062000AF93BF93EF93FF93E0910001F09101012D
:100630000995FF91EF91BF91AF919F918F917F911C
:100640006F915F914F913F912F910F900FBE0F903F
:100650001F9018951F920F920FB60F9211242F938F
:100660003F934F935F936F937F938F939F93AF933A
:10067000BF93EF93FF9380912D1381113DC080E0D4
:1006800091E0EAE2F1E1DF019C011D92215030404E
:10069000E1F7EAE2F2E1DF019C011D9221503040D6
:1006A000E1F710922A1310922B1310922C13F89446
:1006B0001092B0008091B00082608093B0001092E0
:1006C000B1008091B10083608093B10085E4809394
:1006D000B30010927000809170008260809370006F
:1006E000789461E084E00E94C80060E084E00E94A9
:1006F0007B0081E080932D1320912C13222311F194
:1007000080912A1390912B138917A9F0E82FF0E01C
:10071000E65DFE4E9081692F661F6627661F990F62
:100720009083F3959081990F9083911106C08F5F0C
:1007300080932A1302C060E020E020932C1384E011
:100740000E947B00FF91EF91BF91AF919F918F919C
:100750007F916F915F914F913F912F910F900FBEBD
:100760000F901F901895789484B5826084BD84B5ED
:10077000816084BD85B5826085BD85B5816085BD9C
:1007800080916E00816080936E0010928100809154
:1007900081008260809381008091810081608093DC
:1007A0008100809180008160809380008091B10001
:1007B00084608093B1008091B00081608093B0002C
:1007C00080917A00846080937A0080917A008260C0
:1007D00080937A0080917A008E7F80937A00809156
:1007E0007A00806880937A001092C100C0E0D0E067
:1007F0000E947B012097E1F30E940000F9CFF8945A
:02080000FFCF28
:04080200290129019E
:00000001FF
